S00F000069627574746F6E2E7372656310
S11300000C9438000C9455000C9455000C94550035
S11300100C9455000C9455000C9455000C94550008
S11300200C9455000C9455000C9455000C945500F8
S11300300C94A1030C9455000C9455000C94550099
S11300400C9455000C9455000C9455000C945500D8
S11300500C9455000C9455000C9455000C945500C8
S11300600C9455000C9455000C9455000C945500B8
S113007011241FBECFEFD4E0DEBFCDBF11E0A0E05E
S1130080B1E0EAEFFDE002C005900D92A433B107A0
S1130090D9F721E0A4E3B1E001C01D92AF34B20767
S11300A0E1F70E947C010C94FB060C94000088B1DB
S11300B0806388B9869A08954C9A4C9808958E9ACC
S11300C08E980895CF93DF93D82FC8E0DD2314F4DE
S11300D04D9A01C04D980E945C00DD0FC150B1F7EC
S11300E00E945F00DF91CF91089521E030E002C0CB
S11300F0220F331F8A95E2F780913401822B80937B
S113010034010E946200089521E030E002C0220F11
S1130110331F8A95E2F720958091340182238093DE
S113012034010E946200089594B1907F94B994B10F
S1130130892B84B91E9A1E99FECF80B191B108957E
S11301400F931F93CF93DF93CDB7DEB7A0970FB66E
S1130150F894DEBF0FBECDBF7F936F935F934F9331
S11301601F928F9381E091E09F938F938E010F5F95
S11301701F4F1F930F930E940304C8010E94F403AE
S11301800FB6F894DEBF0FBECDBFA0960FB6F8949D
S1130190DEBF0FBECDBFDF91CF911F910F910895A8
S11301A00F931F93CF93DF93CDB7DEB7A0970FB60E
S11301B0F894DEBF0FBECDBF1F926F931F928F9333
S11301C08BE191E09F938F938E010F5F1F4F1F93DD
S11301D00F930E940304C8010E94F4030FB6F8941D
S11301E0DEBF0FBECDBFA0960FB6F894DEBF0FBE24
S11301F0CDBFDF91CF911F910F9108954A9A429AF2
S11302004A988FEB93E00197F1F700C000004A9AF7
S1130210429895ED9A95F1F7000087B1EFE1F3E08C
S11302203197F1F700C000004A9A82FB882780F9D1
S113023091E0892708954A9A429A4A9882E08A95D9
S1130240F1F700C04A9A429895E29A95F1F70000B6
S113025087B198E79A95F1F74A9A82FD02C080E047
S1130260089580E808954A9A4A98429A92E09A95A5
S1130270F1F700C0882311F04A9A429880EA8A95DF
S1130280F1F742984A9A0895EF92FF920F931F93C1
S1130290CF93DF93EC0108E013E3812F81700E9478
S11302A0330116950150C9F77E0188E0E80EF11C70
S11302B0188218E08881869588830E941B019881A2
S11302C0892B88831150B1F72196CE15DF0581F76C
S11302D0DF91CF911F910F91FF90EF900895929A23
S11302E0919A909A8298929A8A9A859A8D988098EF
S11302F0419A4998529A08950E946F010E945700AA
S113030080E00E94620080E00E94750081E00E940B
S1130310750080E00E94750082E00E94750088E00C
S113032090E00E94E9031A9A84B184B91F9A0E944A
S11303309603789411E0C7E3D1E005E02FE74AE1A2
S113034086E0215040408040E1F700C000008091E9
S1130350460180934D0180E00E94940090934501F2
S113036080934401212F8F36910508F420E02093D7
S1130370460120914A0130914B01263D314098F1CC
S113038020913601222359F18F36910540F14C8199
S11303905D816E817F8186E00E94A0008FE79AE1F3
S11303A026E0815090402040E1F700C000004881E1
S11303B059816A817B8187E00E94A0008091350188
S11303C0853010F496E001C090E09093360180915E
S11303D00001981B90933501815080930001109285
S11303E04B0110924A0180914601882321F083E059
S11303F00E94750003C083E00E9484000E94FE00F6
S1130400882309F46BC080913F01811167C0CE013C
S11304100E9444018881813009F060C04C815D8173
S11304206E817F8186E00E94A0004FE78AE196E01A
S1130430415080409040E1F700C00000488159815C
S11304406A817B8187E00E94A0002FE74AE186E071
S1130450215040408040E1F700C0000062E4812F59
S11304600E94D0009FE72AE146E09150204040409E
S1130470E1F700C0000082E00E94840060E089E0AF
S11304800E94D0008FE79AE126E0815090402040FE
S1130490E1F700C00000612F89E00E94D0004FE71F
S11304A08AE196E0415080409040E1F700C00000AE
S11304B010933F011093360100930001809146018F
S11304C0811106C0109249011092480110934C0109
S11304D0109241011092400110924E018091460108
S11304E08130D9F480914D0181111DC180913F016A
S11304F0811119C160E08CE00E94D0002FE74AE12D
S113050086E0215040408040E1F700C00000109296
S113051041011092400110934E01809146018111D6
S113052038C080914D01813009F042C080913F0173
S1130530811124C060E089E00E94D0009FE72AE195
S113054046E0915020404040E1F700C00000612F98
S113055089E00E94D0008FE79AE126E08150904024
S11305602040E1F700C0000010924E018091460146
S113057081110FC080914D018130D1F480913F01F0
S11305808130B1F41092430110924201109347015B
S11305900FC0813069F480914D01811109C08091AF
S11305A03F01813029F410924C01109247019EC002
S11305B080914C01813009F049C0809148019091AB
S11305C04901893E934008F441C01092360140E04D
S11305D050E0BA0186E00E94A0008FE79AE126E08D
S11305E0815090402040E1F700C0000040E050E01E
S11305F0BA0187E00E94A0004FE78AE196E04150EB
S113060080409040E1F700C000006EE3812F0E941B
S1130610D0002FE74AE186E0215040408040E1F7D6
S113062000C0000082E00E947500612F88E00E94F3
S1130630D0009FE72AE146E0915020404040E1F796
S113064000C0000010923F0110924C0180914701BC
S1130650813009F04BC08091420190914301853F64
S1130660914008F443C01092360140E050E0BA01D2
S113067086E00E94A0004FE78AE196E04150804066
S11306809040E1F700C0000040E050E0BA0187E08C
S11306900E94A0002FE74AE186E0215040408040BC
S11306A0E1F700C000006EE3812F0E94D0009FE7B5
S11306B02AE146E0915020404040E1F700C00000AC
S11306C082E00E947500612F88E00E94D0008FE7CD
S11306D09AE126E0815090402040E1F700C00000FC
S11306E010923F0110924C011092470180914E01EB
S11306F0813009F023CE8091400190914101893EDF
S1130700934008F41BCE612F88E00E94D0008FE74D
S11307109AE126E0815090402040E1F700C00000BB
S113072010924E010BCE8091460133CF8AB38ABB1F
S11307308AB385608ABB83E689BB8AB782608ABF35
S113074008951F920F920FB60F9211248F939F93C7
S113075083E689BB80914C01882349F0809148014C
S113076090914901019690934901809348018091A9
S11307704701882349F080914201909143010196F9
S1130780909343018093420180914E01882349F064
S11307908091400190914101019690934101809391
S11307A0400180914A0190914B01019690934B0135
S11307B080934A019F918F910F900FBE0F901F90CD
S11307C01895E9E7F0E0908195FFFDCF80937300E1
S11307D00895909375008093740088E18093780065
S11307E082E0809379000895CF93DF93EC018881B0
S11307F0882331F021960E94E10389918111FBCF76
S1130800DF91CF910895AEE0B0E0E9E0F4E00C941C
S1130810D2060D891E8986E08C831A8309838FEFA3
S11308209FE79E838D83AE01475E5F4F6F89788D0E
S1130830CE0101960E942504EF81F885E00FF11F97
S113084010822E96E4E00C94EE06ABE0B0E0EBE20E
S1130850F4E00C94C4066C017B018A01FC0117824C
S11308601682838181FFCFC1CE0101963C01F6013E
S11308709381F70193FD859193FF81917F018823F3
S113088009F4BDC1853239F493FD859193FF8191BB
S11308907F01853229F4B60190E00E941F06E7CF5C
S11308A0912C212C312CFFE1F315E0F08B3279F0FF
S11308B038F4803279F08332A9F4232D206110C0FA
S11308C08D3259F0803371F4232D216009C0832DBA
S11308D08260382EE32DE46024C0F32DF86027C035
S11308E0322E29C037FC2FC020ED280F2A3098F46F
S11308F036FE07C0892D6AE00E94BB06922E980E30
S11309001AC0822D6AE00E94BB06222E280E832D77
S11309108062382E10C08E3231F436FC70C1E32D63
S1130920E0643E2E08C08C3621F4F32DF0683F2E8F
S113093002C0883641F4F70193FD859193FF8191BC
S11309407F018111B0CF982F9F7D9554933028F467
S11309500C5F1F4F2FE329830DC0833631F083379B
S113096071F0833509F059C021C0F8018081898371
S11309700E5F1F4F88248394912C530113C02801C8
S1130980F2E04F0E511CF801A080B18036FE03C086
S1130990692D70E002C06FEF7FEFC5010E9414065D
S11309A04C018201F32DFF773F2E16C0280122E06F
S11309B0420E511CF801A080B18036FE03C0692D9F
S11309C070E002C06FEF7FEFC5010E9409064C0181
S11309D0F32DF0683F2E820133FC1BC0822D90E082
S11309E088169906B0F4B60180E290E00E941F06D2
S11309F02A94F4CFF50137FC859137FE81915F018C
S1130A00B60190E00E941F0621102A9421E0821A68
S1130A1091088114910471F7E8C0843611F0893685
S1130A2041F5F80137FE07C06081718182819381AD
S1130A300C5F1F4F08C060817181072E000C880B6A
S1130A40990B0E5F1F4FF32DFF763F2E97FF09C0C2
S1130A5090958095709561957F4F8F4F9F4FF0686B
S1130A603F2E2AE030E0A3010E945B06882E861800
S1130A7045C0853731F4232D2F7EB22E2AE030E095
S1130A8025C0932D997FB92E8F36C1F018F488357F
S1130A9079F0B5C0803719F0883721F0B0C0E92F5C
S1130AA0E061BE2EB4FE0DC0FB2DF460BF2E09C064
S1130AB034FE0AC0292F2660B22E06C028E030E09A
S1130AC005C020E130E002C020E132E0F801B7FEC9
S1130AD007C060817181828193810C5F1F4F06C0C2
S1130AE06081718180E090E00E5F1F4FA3010E943E
S1130AF05B06882E8618FB2DFF773F2E36FE0DC031
S1130B00232D2E7FA22E891458F434FE0BC032FC00
S1130B1009C0832D8E7EA82E05C0B82CA32C03C03B
S1130B20B82C01C0B92CA4FE0FC0FE01E80DF11DC4
S1130B308081803321F49A2D997EA92E09C0A2FECA
S1130B4006C0B394B39404C08A2D867809F0B39494
S1130B50A3FC11C0A0FE06C0B21488F4280C922C89
S1130B609B180EC0B21460F4B60180E290E00E94BB
S1130B701F06B394F7CFB21418F42B1802C0982CA4
S1130B80212CA4FE10C0B60180E390E00E941F0651
S1130B90A2FE17C0A1FC03C088E790E002C088E56C
S1130BA090E0B6010CC08A2D867859F0A1FE02C0EF
S1130BB08BE201C080E2A7FC8DE2B60190E00E94C6
S1130BC01F06891438F4B60180E390E00E941F06E2
S1130BD09A94F7CF8A94F301E80DF11D8081B60150
S1130BE090E00E941F068110F5CF222009F43FCE29
S1130BF0B60180E290E00E941F062A94F6CFF60127
S1130C008681978102C08FEF9FEF2B96E2E10C94CF
S1130C10E006FC010590615070400110D8F7809502
S1130C2090958E0F9F1F0895FC01615070400190B4
S1130C300110D8F7809590958E0F9F1F08950F93FC
S1130C401F93CF93DF93FB01238121FD03C08FEF1B
S1130C509FEF2CC022FF16C0468157812481358125
S1130C604217530744F4A081B1819D012F5F3F4F88
S1130C70318320838C93268137812F5F3F4F3783C5
S1130C80268314C08B01EC01FB010084F185E02D67
S1130C900995892BE1F6D80116968D919C911797A9
S1130CA0019617969C938E931697CE01DF91CF9160
S1130CB01F910F910895FA01AA27283061F120317C
S1130CC091F1E8946F936E7F6E5F7F4F8F4F9F4FCC
S1130CD0AF4FB1E040D0B4E03ED0670F781F891F1A
S1130CE09A1FA11D680F791F8A1F911DA11D6A0FEC
S1130CF0711D811D911DA11D22D009F468943F919D
S1130D00062E000C3019000C000C3019305D3193A4
S1130D10CEF6CF010895462F4770405D4193B3E06E
S1130D200FD0C9F7F6CF462F4F70405D4A3318F005
S1130D30495D31FD4052419302D0A9F7EACFB4E0B6
S1130D40A6959795879577956795BA95C9F700976E
S1130D506105710508959B01AC010A2E069457950F
S1130D60479537952795BA95C9F7620F731F841F66
S1130D70951FA01D0895002480FD060E660F11F036
S1130D808695D1F7802D08952F923F924F925F92CE
S1130D906F927F928F929F92AF92BF92CF92DF9287
S1130DA0EF92FF920F931F93CF93DF93CDB7DEB7EC
S1130DB0CA1BDB0B0FB6F894DEBF0FBECDBF099480
S1130DC02A88398848885F846E847D848C849B84D7
S1130DD0AA84B984C884DF80EE80FD800C811B81E5
S1130DE0AA81B981CE0FD11D0FB6F894DEBF0FBE14
S10D0DF0CDBFED010895F894FFCF84
S1130DFA0541542441505020504152414D2032352E
S1130E0A36302C25752C256C750D0041542441501F
S1130E1A502050454720414354494F4E20257520C0
S1070E2A25750D0019
S9030000FC
